{
  "_format": "hh-sol-artifact-1",
  "contractName": "Token",
  "sourceName": "contracts/Tokenize.sol",
  "abi": [
    {
      "inputs": [],
      "stateMutability": "nonpayable",
      "type": "constructor"
    },
    {
      "anonymous": false,
      "inputs": [
        {
          "indexed": true,
          "internalType": "address",
          "name": "_from",
          "type": "address"
        },
        {
          "indexed": true,
          "internalType": "address",
          "name": "_to",
          "type": "address"
        },
        {
          "indexed": false,
          "internalType": "uint256",
          "name": "amount",
          "type": "uint256"
        }
      ],
      "name": "Transfert",
      "type": "event"
    },
    {
      "inputs": [
        {
          "internalType": "address",
          "name": "account",
          "type": "address"
        }
      ],
      "name": "balanceOf",
      "outputs": [
        {
          "internalType": "uint256",
          "name": "",
          "type": "uint256"
        }
      ],
      "stateMutability": "view",
      "type": "function"
    },
    {
      "inputs": [],
      "name": "name",
      "outputs": [
        {
          "internalType": "string",
          "name": "",
          "type": "string"
        }
      ],
      "stateMutability": "view",
      "type": "function"
    },
    {
      "inputs": [],
      "name": "owner",
      "outputs": [
        {
          "internalType": "address",
          "name": "",
          "type": "address"
        }
      ],
      "stateMutability": "view",
      "type": "function"
    },
    {
      "inputs": [],
      "name": "symbole",
      "outputs": [
        {
          "internalType": "string",
          "name": "",
          "type": "string"
        }
      ],
      "stateMutability": "view",
      "type": "function"
    },
    {
      "inputs": [],
      "name": "totalSupply",
      "outputs": [
        {
          "internalType": "uint256",
          "name": "",
          "type": "uint256"
        }
      ],
      "stateMutability": "view",
      "type": "function"
    },
    {
      "inputs": [
        {
          "internalType": "address payable",
          "name": "to",
          "type": "address"
        },
        {
          "internalType": "uint256",
          "name": "amount",
          "type": "uint256"
        }
      ],
      "name": "transfert",
      "outputs": [],
      "stateMutability": "nonpayable",
      "type": "function"
    }
  ],
  "bytecode": "0x60806040526040518060400160405280601181526020017f466f727465737420746f6b656e61626c650000000000000000000000000000008152506000908051906020019061004f92919061013b565b506040518060400160405280600381526020017f46545400000000000000000000000000000000000000000000000000000000008152506001908051906020019061009b92919061013b565b506103e86002553480156100ae57600080fd5b50600254600460003373ffffffffffffffffffffffffffffffffffffffff1673ffffffffffffffffffffffffffffffffffffffff1681526020019081526020016000208190555033600360006101000a81548173ffffffffffffffffffffffffffffffffffffffff021916908373ffffffffffffffffffffffffffffffffffffffff16021790555061023f565b8280546101479061020d565b90600052602060002090601f01602090048101928261016957600085556101b0565b82601f1061018257805160ff19168380011785556101b0565b828001600101855582156101b0579182015b828111156101af578251825591602001919060010190610194565b5b5090506101bd91906101c1565b5090565b5b808211156101da5760008160009055506001016101c2565b5090565b7f4e487b7100000000000000000000000000000000000000000000000000000000600052602260045260246000fd5b6000600282049050600182168061022557607f821691505b60208210811415610239576102386101de565b5b50919050565b6108628061024e6000396000f3fe608060405234801561001057600080fd5b50600436106100625760003560e01c806306fdde031461006757806318160ddd146100855780634362c116146100a357806370a08231146100bf5780638da5cb5b146100ef578063ed6968e71461010d575b600080fd5b61006f61012b565b60405161007c91906104ec565b60405180910390f35b61008d6101b9565b60405161009a9190610527565b60405180910390f35b6100bd60048036038101906100b891906105d1565b6101bf565b005b6100d960048036038101906100d4919061064f565b610356565b6040516100e69190610527565b60405180910390f35b6100f761039f565b604051610104919061068b565b60405180910390f35b6101156103c5565b60405161012291906104ec565b60405180910390f35b60008054610138906106d5565b80601f0160208091040260200160405190810160405280929190818152602001828054610164906106d5565b80156101b15780601f10610186576101008083540402835291602001916101b1565b820191906000526020600020905b81548152906001019060200180831161019457829003601f168201915b505050505081565b60025481565b80600460003373ffffffffffffffffffffffffffffffffffffffff1673ffffffffffffffffffffffffffffffffffffffff168152602001908152602001600020541015610241576040517f08c379a000000000000000000000000000000000000000000000000000000000815260040161023890610753565b60405180910390fd5b80600460003373ffffffffffffffffffffffffffffffffffffffff1673ffffffffffffffffffffffffffffffffffffffff168152602001908152602001600020600082825461029091906107a2565b9250508190555080600460008473ffffffffffffffffffffffffffffffffffffffff1673ffffffffffffffffffffffffffffffffffffffff16815260200190815260200160002060008282546102e691906107d6565b925050819055508173ffffffffffffffffffffffffffffffffffffffff163373ffffffffffffffffffffffffffffffffffffffff167faf9ff3ada675379ca19fdd908e550417162f2a7370166e8257b25888e55926e78360405161034a9190610527565b60405180910390a35050565b6000600460008373ffffffffffffffffffffffffffffffffffffffff1673ffffffffffffffffffffffffffffffffffffffff168152602001908152602001600020549050919050565b600360009054906101000a900473ffffffffffffffffffffffffffffffffffffffff1681565b600180546103d2906106d5565b80601f01602080910402602001604051908101604052809291908181526020018280546103fe906106d5565b801561044b5780601f106104205761010080835404028352916020019161044b565b820191906000526020600020905b81548152906001019060200180831161042e57829003601f168201915b505050505081565b600081519050919050565b600082825260208201905092915050565b60005b8381101561048d578082015181840152602081019050610472565b8381111561049c576000848401525b50505050565b6000601f19601f8301169050919050565b60006104be82610453565b6104c8818561045e565b93506104d881856020860161046f565b6104e1816104a2565b840191505092915050565b6000602082019050818103600083015261050681846104b3565b905092915050565b6000819050919050565b6105218161050e565b82525050565b600060208201905061053c6000830184610518565b92915050565b600080fd5b600073ffffffffffffffffffffffffffffffffffffffff82169050919050565b600061057282610547565b9050919050565b61058281610567565b811461058d57600080fd5b50565b60008135905061059f81610579565b92915050565b6105ae8161050e565b81146105b957600080fd5b50565b6000813590506105cb816105a5565b92915050565b600080604083850312156105e8576105e7610542565b5b60006105f685828601610590565b9250506020610607858286016105bc565b9150509250929050565b600061061c82610547565b9050919050565b61062c81610611565b811461063757600080fd5b50565b60008135905061064981610623565b92915050565b60006020828403121561066557610664610542565b5b60006106738482850161063a565b91505092915050565b61068581610611565b82525050565b60006020820190506106a0600083018461067c565b92915050565b7f4e487b7100000000000000000000000000000000000000000000000000000000600052602260045260246000fd5b600060028204905060018216806106ed57607f821691505b60208210811415610701576107006106a6565b5b50919050565b7f466f6e6420696e737566666973616e7400000000000000000000000000000000600082015250565b600061073d60108361045e565b915061074882610707565b602082019050919050565b6000602082019050818103600083015261076c81610730565b9050919050565b7f4e487b7100000000000000000000000000000000000000000000000000000000600052601160045260246000fd5b60006107ad8261050e565b91506107b88361050e565b9250828210156107cb576107ca610773565b5b828203905092915050565b60006107e18261050e565b91506107ec8361050e565b9250827fffffffffffffffffffffffffffffffffffffffffffffffffffffffffffffffff0382111561082157610820610773565b5b82820190509291505056fea2646970667358221220e0fe2f5b3b46428118084133452196cb703aab71f4d3cfac3cb852ad93289ec064736f6c63430008090033",
  "linkReferences": {},
  "deployedLinkReferences": {}
}